:020000040800F2
:1000000000500020151900083D180008431800088A
:10001000491800084F180008551800080000000093
:100020000000000000000000000000005B18000855
:100030006718000800000000731800087F18000807
:100040005D1900085D1900085D1900085D190008B8
:100050005D1900085D1900085D1900085D190008A8
:100060005D1900085D1900085D1900085D19000898
:100070005D1900085D1900085D1900085D19000888
:100080005D1900085D1900085D1900085D19000878
:100090005D1900085D1900085D1900085D19000868
:1000A0005D1900085D1900085D1900085D19000858
:1000B0005D1900085D1900085D1900085D19000848
:1000C0005D1900085D1900085D1900085D19000838
:1000D0005D1900085D1900085D1900085D19000828
:1000E0008B1800085D1900085D1900080000000069
:1000F0000000000000000000000000000000000000
:0C01000000000000000000005FF808F1A3
:1001100010B5054C237833B9044B13B10448AFF341
:1001200000800123237010BD70000020000000003B
:100130006848000808B5034B1BB103490348AFF3F7
:10014000008008BD0000000074000020684800081E
:10015000034613F8012B002AFBD1181A0138704707
:1001600081F0004102E000BF83F0004330B54FEA68
:1001700041044FEA430594EA050F08BF90EA020FD5
:100180001FBF54EA000C55EA020C7FEA645C7FEA68
:10019000655C00F0E2804FEA5454D4EB5555B8BF8B
:1001A0006D420CDD2C4480EA020281EA030382EAFC
:1001B000000083EA010180EA020281EA0303362D8E
:1001C00088BF30BD11F0004F4FEA01314FF4801C61
:1001D0004CEA113102D0404261EB410113F0004F73
:1001E0004FEA03334CEA133302D0524263EB43032A
:1001F00094EA050F00F0A780A4F10104D5F1200EC8
:100200000DDB02FA0EFC22FA05F2801841F1000122
:1002100003FA0EF2801843FA05F359410EE0A5F1F6
:1002200020050EF1200E012A03FA0EFC28BF4CF027
:10023000020C43FA05F3C01851EBE37101F00045DD
:1002400007D54FF0000EDCF1000C7EEB00006EEBEA
:100250000101B1F5801F1BD3B1F5001F0CD3490874
:100260005FEA30004FEA3C0C04F101044FEA4452CB
:1002700012F5800F80F09A80BCF1004F08BF5FEA52
:10028000500C50F1000041EB045141EA050130BD32
:100290005FEA4C0C404141EB0101013C28BFB1F544
:1002A000801FE9D291F0000F04BF01460020B1FA8F
:1002B00081F308BF2033A3F10B03B3F120020CDA62
:1002C0000C3208DD02F1140CC2F10C0201FA0CF040
:1002D00021FA02F10CE002F11402D8BFC2F1200CA5
:1002E00001FA02F120FA0CFCDCBF41EA0C0190405B
:1002F000E41AA2BF01EB0451294330BD6FEA0404A4
:100300001F3C1CDA0C340EDC04F11404C4F120028E
:1003100020FA04F001FA02F340EA030021FA04F3A0
:1003200045EA030130BDC4F10C04C4F1200220FAF7
:1003300002F001FA04F340EA0300294630BD21FA35
:1003400004F0294630BD94F0000F83F4801306BFFB
:1003500081F480110134013D4EE77FEA645C18BFEF
:100360007FEA655C29D094EA050F08BF90EA020F86
:1003700005D054EA000C04BF1946104630BD91EA7E
:10038000030F1EBF0021002030BD5FEA545C05D181
:100390004000494128BF41F0004130BD14F58004C0
:1003A0003CBF01F5801130BD01F0004545F0FE4134
:1003B00041F470014FF0000030BD7FEA645C1ABF69
:1003C000194610467FEA655C1CBF0B46024650EAA0
:1003D000013406BF52EA033591EA030F41F40021CC
:1003E00030BD00BF90F0000F04BF0021704730B552
:1003F0004FF4806404F132044FF000054FF0000127
:1004000050E700BF90F0000F04BF0021704730B5E7
:100410004FF4806404F1320410F0004548BF4042BC
:100420004FF000013EE700BF42004FEAE2014FEA11
:1004300031014FEA02701FBF12F07F4393F07F4FEC
:1004400081F06051704732F07F4208BF704793F0EF
:100450007F4F04BF41F40021704730B54FF4607402
:1004600001F0004521F000411CE700BF50EA010205
:1004700008BF704730B54FF000050AE050EA0102AE
:1004800008BF704730B511F0004502D5404261EB1E
:1004900041014FF4806404F132045FEA915C3FF45F
:1004A000D8AE4FF003025FEADC0C18BF03325FEAFC
:1004B000DC0C18BF033202EBDC02C2F1200300FAAD
:1004C00003FC20FA02F001FA03FE40EA0E0021FAD2
:1004D00002F11444BDE600BF70B54FF0FF0C4CF4C0
:1004E000E06C1CEA11541DBF1CEA135594EA0C0F72
:1004F00095EA0C0F00F0DEF82C4481EA030621EAAD
:100500004C5123EA4C5350EA013518BF52EA0335E7
:1005100041F4801143F4801338D0A0FB02CE4FF099
:100520000005E1FB02E506F00042E0FB03E54FF0C9
:100530000006E1FB03569CF0000F18BF4EF0010EC1
:10054000A4F1FF04B6F5007F64F5407404D25FEABD
:100550004E0E6D4146EB060642EAC62141EA555170
:100560004FEAC52040EA5E504FEACE2EB4F1FD0CB2
:1005700088BFBCF5E06F1ED8BEF1004F08BF5FEA30
:10058000500E50F1000041EB045170BD06F00046E2
:1005900046EA010140EA020081EA0301B4EB5C048F
:1005A000C2BFD4EB0C0541EA045170BD41F4801187
:1005B0004FF0000E013C00F3AB8014F1360FDEBFAC
:1005C000002001F0004170BDC4F10004203C35DA88
:1005D0000C341BDC04F11404C4F1200500FA05F30B
:1005E00020FA04F001FA05F240EA020001F00042AC
:1005F00021F0004110EBD37021FA04F642EB060122
:100600005EEA430E08BF20EAD37070BDC4F10C044B
:10061000C4F1200500FA04F320FA05F001FA04F20F
:1006200040EA020001F0004110EBD37041F10001FB
:100630005EEA430E08BF20EAD37070BDC4F1200506
:1006400000FA05F24EEA020E20FA04F301FA05F26E
:1006500043EA020321FA04F001F0004121FA04F216
:1006600020EA020000EBD3705EEA430E08BF20EAE6
:10067000D37070BD94F0000F0FD101F00046400020
:1006800041EB010111F4801F08BF013CF7D041EAA2
:10069000060195F0000F18BF704703F000465200A6
:1006A00043EB030313F4801F08BF013DF7D043EA77
:1006B0000603704794EA0C0F0CEA135518BF95EA2D
:1006C0000C0F0CD050EA410618BF52EA4306D1D1B4
:1006D00081EA030101F000414FF0000070BD50EAD3
:1006E000410606BF1046194652EA430619D094EA5D
:1006F0000C0F02D150EA013613D195EA0C0F05D147
:1007000052EA03361CBF104619460AD181EA03019A
:1007100001F0004141F0FE4141F470014FF0000052
:1007200070BD41F0FE4141F4780170BD70B54FF0ED
:10073000FF0C4CF4E06C1CEA11541DBF1CEA13556D
:1007400094EA0C0F95EA0C0F00F0A7F8A4EB05044F
:1007500081EA030E52EA03354FEA013100F0888046
:100760004FEA03334FF0805545EA131343EA12630F
:100770004FEA022245EA111545EA10654FEA0026C4
:100780000EF000419D4208BF964244F1FD0404F57D
:10079000407402D25B084FEA3202B61A65EB0305D9
:1007A0005B084FEA32024FF480104FF4002CB6EB96
:1007B000020E75EB030E22BFB61A754640EA0C0016
:1007C0005B084FEA3202B6EB020E75EB030E22BF56
:1007D000B61A754640EA5C005B084FEA3202B6EB97
:1007E000020E75EB030E22BFB61A754640EA9C0056
:1007F0005B084FEA3202B6EB020E75EB030E22BF26
:10080000B61A754640EADC0055EA060E18D04FEAE3
:10081000051545EA16754FEA06164FEAC30343EA83
:1008200052734FEAC2025FEA1C1CC0D111F4801F50
:100830000BD141EA00014FF000004FF0004CB6E749
:1008400011F4801F04BF01430020B4F1FD0C88BFE8
:10085000BCF5E06F3FF6AFAEB5EB030C04BFB6EBF3
:10086000020C5FEA500C50F1000041EB045170BDE6
:100870000EF0004E4EEA113114EB5C04C2BFD4EB13
:100880000C0541EA045170BD41F480114FF0000E97
:10089000013C90E645EA060E8DE60CEA135594EA13
:1008A0000C0F08BF95EA0C0F3FF43BAF94EA0C0F16
:1008B0000AD150EA01347FF434AF95EA0C0F7FF48B
:1008C00025AF104619462CE795EA0C0F06D152EADF
:1008D00003353FF4FDAE1046194622E750EA4106C3
:1008E00018BF52EA43067FF4C5AE50EA41047FF4D4
:1008F0000DAF52EA43057FF4EBAE12E74FF0FF3C39
:1009000006E000BF4FF0010C02E000BF4FF0010C09
:100910004DF804CD4FEA410C7FEA6C5C4FEA430C82
:1009200018BF7FEA6C5C1BD001B050EA410C0CBFD1
:1009300052EA430C91EA030F02BF90EA020F002033
:10094000704710F1000F91EA030F58BF994208BF9A
:1009500090422CBFD8176FEAE37040F00100704757
:100960004FEA410C7FEA6C5C02D150EA013C07D1AE
:100970004FEA430C7FEA6C5CD6D152EA033CD3D0F9
:100980005DF8040B704700BF8446104662468C46F3
:100990001946634600E000BF01B5FFF7B7FF002826
:1009A00048BF10F1000F01BD4DF808EDFFF7F4FF4F
:1009B0000CBF012000205DF808FB00BF4DF808EDDA
:1009C000FFF7EAFF34BF012000205DF808FB00BFFD
:1009D0004DF808EDFFF7E0FF94BF012000205DF81F
:1009E00008FB00BF4DF808EDFFF7CEFF94BF0120D4
:1009F00000205DF808FB00BF4DF808EDFFF7C4FFCD
:100A000034BF012000205DF808FB00BF4A0011D26E
:100A100012F5001211D20DD56FF47873B3EB625258
:100A20000ED44FEAC12343F0004343EA505323FA64
:100A300002F070474FF00000704750EA013002D1D9
:100A40004FF0FF3070474FF00000704780B5ADF5B4
:100A5000056D04AF00F084FF00F08AFC00F064FD37
:100A600000F0CCFC00F0DEFC00F00AFD00F032FDEE
:100A700007F2144300221A60043340F203420021BB
:100A8000184603F09DF907F1140300221A6004339D
:100A90004FF47F720021184603F092F907F10C031E
:100AA00000221A6000229A8000F05CF900F042FAFD
:100AB0000346C7F82038D7F82038184600F0B0FAB7
:100AC00007F10C0305221A7007F10C0331225A704A
:100AD0000023C7F8383817E007F10C02D7F8383888
:100AE00013441B781A4607F108031A6007F108033C
:100AF000012219468B4801F0E2F8C7F83C08D7F804
:100B000038380133C7F83838D7F83838012BE3D9EB
:100B100007F10C03C7F81C38D7F81C380233C7F8A4
:100B20001C38D7F81C38D7F83C281A6000BF7E4B19
:100B30001B78012BFBD14FF4FA6000F073FF07F133
:100B40000C014FF0FF330622784802F0FEFED7F882
:100B50002008FFF747FC4FF00002754BFFF7E6FD5A
:100B600002460B461046194603F0FEFD02460B46B0
:100B700010461946FFF74AFF034687F81B38002343
:100B8000C7F83438C6E00023C7F8303822E0D7F879
:100B900034381A01D7F8303813449BB29B0199B20C
:100BA000D7F830389B0107F1140213444FF47A72DE
:100BB000029240220192009302230A46A0215D483E
:100BC00001F09AFC0A2000F02DFFD7F830380133ED
:100BD000C7F83038D7F830380F2BD8DD07F2144378
:100BE00063221A7097F81B38013BD7F834289A42D1
:100BF00021D107F21443012283F80124D7F82038C9
:100C00009AB2D7F834389BB29B029BB2D31AA7F89A
:100C10002E380AE0B7F82E3807F11402FF21D1541C
:100C2000B7F82E380133A7F82E38B7F82E38B3F5B9
:100C3000806FEFD304E007F21443002283F801240D
:100C40000123C7F8283811E0D7F82838013B07F10D
:100C50001402D15C07F21442D7F8283813440A462C
:100C60001A70D7F828380133C7F82838D7F8283849
:100C7000B3F5806FE8DD0023C7F83C380023C7F8E0
:100C8000243815E007F21442D7F8243813441B78AF
:100C90001A463B1D1A603B1D01221946214801F0EE
:100CA0000EF8C7F83C08D7F824380133C7F82438C1
:100CB000D7F8243840F201429342E3D907F21443B3
:100CC000C7F81C38D7F81C3803F20243C7F81C38A1
:100CD000D7F81C38D7F83C281A6000BF124B1B7895
:100CE0001A46D7F8343802339A42F7D1C82000F0B8
:100CF00099FE07F214414FF0FF3340F207420B48D0
:100D000002F023FE0A2000F08DFED7F834380133BC
:100D1000C7F8343897F81B38D7F834289A42FFF6CA
:100D200032AFFEE79C0000208C0000203C01002038
:100D300000009040A400002080B483B000AF0346C0
:100D4000FB80FB88B3F5805F05D1054B1B78013331
:100D5000DAB2034B1A7000BF0C37BD4680BC704737
:100D60008C00002080B592B000AF3B466649184623
:100D700003F02EF83B461846FFF7EAF903469AB20D
:100D800039464FF0FF33614802F0DFFDC82000F024
:100D900049FE3B465E49184603F01AF83B461846A2
:100DA000FFF7D6F903469AB239464FF0FF3357485A
:100DB00002F0CBFDC82000F035FE3B4655491846F1
:100DC00003F006F83B461846FFF7C2F903469AB20D
:100DD00039464FF0FF334D4802F0B7FD4FF4FA604B
:100DE00000F020FE3B464C49184602F0F1FF3B461E
:100DF0001846FFF7ADF903469AB239464FF0FF3374
:100E0000424802F0A2FD4FF4FA6000F00BFE3B46B0
:100E10004249184602F0DCFF3B461846FFF798F9B6
:100E200003469AB239464FF0FF33384802F08DFD41
:100E3000C82000F0F7FD3B463949184602F0C8FFCC
:100E40003B461846FFF784F903469AB239464FF0FD
:100E5000FF332E4802F079FDC82000F0E3FD3B4649
:100E60003049184602F0B4FF3B461846FFF770F9C8
:100E700003469AB239464FF0FF33244802F065FD2D
:100E8000C82000F0CFFD3B462749184602F0A0FFDE
:100E90003B461846FFF75CF903469AB239464FF0D5
:100EA000FF331A4802F051FDC82000F0BBFD3B465D
:100EB0001E49184602F08CFF3B461846FFF748F9DA
:100EC00003469AB239464FF0FF33104802F03DFD19
:100ED000C82000F0A7FD3B461549184602F078FFF0
:100EE0003B461846FFF734F903469AB239464FF0AD
:100EF000FF33064802F029FD49F6404000F092FD1C
:100F000000BF4837BD4680BD80480008F80000207B
:100F1000A0480008C0480008D0480008EC48000875
:100F200000490008144900082C49000844490008F9
:100F30005849000880B5A8B000AF0023C7F890302A
:100F400007F148033449184602F042FF07F148030D
:100F50001846FFF7FDF803469AB207F148014FF033
:100F6000FF332E4802F0F1FC39464FF47A734622E3
:100F70002A4802F07CFD002387F89F302F23C7F812
:100F8000983024E097F89F30013387F89F30D7F8E6
:100F900098302F3B3946D7F898200A44127807F149
:100FA000A0010B4403F8A02C3A46D7F8983013441C
:100FB0001B780D2B06D13A46D7F8983013440022FF
:100FC0001A7008E0D7F898300133C7F89830D7F88E
:100FD0009830452BD6DD97F89F30C7F894300AE05B
:100FE0003A46D7F89430134400221A70D7F8943058
:100FF0000133C7F89430D7F89430452BF0DD3B46E9
:10100000184602F0AFFEC7F89000D7F890301846A7
:10101000A037BD4680BD00BF78490008F800002019
:10102000B0B5ADF5956D04AF3B1D18600023C7F852
:1010300094340023C7F8903469E107F108030022D3
:101040001A60043342220021184602F0B9FE07F16B
:10105000500300221A60043340F22A42002118464D
:1010600002F0AEFED7F890349A0207F10803BA49AD
:10107000184602F0ADFE07F108031846FFF768F8BE
:1010800003469AB207F108014FF0FF33B34802F06C
:101090005CFCD7F89034002B12D107F150014FF4CB
:1010A0007A7340F22E42AD4802F0E1FC08E007F10D
:1010B00050014FF47A7340F22E42A84802F0D7FC58
:1010C00007F1500393F83230002BF0D00023C7F81B
:1010D00094340023C7F88C3419E0D7F894340133E2
:1010E000C7F8943407F15002D7F88C3413441B78B6
:1010F0000D2B07D1D7F88C34013307F15002D35CA4
:101100000A2B0BD0D7F88C340133C7F88C34D7F8BE
:101110008C3440F22D429342DFDD00E000BF00231B
:10112000C7F8883414E0D7F894345A1CD7F88834B8
:10113000134407F15002D15C07F15002D7F888340C
:1011400013440A461A70D7F888340133C7F8883434
:10115000D7F88834B3F5806FE5DB3B1D1B68002BA7
:1011600001DA03F2FF339B121A46D7F89034934208
:1011700040F09B803B1D1B689AB2D7F890349BB21D
:101180009B029BB2D31AA7F87E340023C7F884349D
:101190006AE0D7F88404FFF735F904460D46B7F83E
:1011A0007E341846FFF72EF94FF000026C4BFFF724
:1011B000BDFA02460B461046194603F0D5FA4FF029
:1011C0000002684BFEF7D0FF02460B462046294638
:1011D000FFF7EAFB0346002B23D0D7F890341A011F
:1011E000D7F8843413449BB29B0199B2D7F8843466
:1011F0009B0107F150021344B7F87E2402F03F022E
:1012000092B24FF47A7002900192009302230A4640
:10121000A021554801F076F80A2000F003FC00BF39
:1012200074E0D7F890341A01D7F8843413449BB291
:101230009B0199B2D7F884349B0107F15002134403
:101240004FF47A72029240220192009302230A46DE
:10125000A021454801F056F80A2000F0E3FBD7F83A
:1012600084340133C7F88434D7F88404FFF7CAF80C
:1012700004460D46B7F87E341846FFF7C3F84FF022
:101280000002374BFFF752FA02460B46104619464A
:1012900003F06AFA02460B4620462946FFF78EFB0A
:1012A0000346002B7FF475AF30E00023C7F880348D
:1012B00022E0D7F890341A01D7F8803413449BB257
:1012C0009B0199B2D7F880349B0107F15002134477
:1012D0004FF47A72029240220192009302230A464E
:1012E000A021214801F00EF80A2000F09BFBD7F85E
:1012F00080340133C7F88034D7F880340F2BD8DD21
:10130000D7F890340133C7F8903400E01EE0D7F8E6
:101310009004FFF777F804460D463B1D1868FFF769
:1013200071F84FF00002114BFFF700FA02460B462E
:101330001046194603F018FA02460B462046294685
:10134000FFF73CFB0346002B7FF477AE00BF07F5A9
:101350009367BD46B0BD00BF9C490008F80000205F
:10136000000050400000F03FA4000020000090402A
:1013700080B590B000AF07F118032822002118466D
:1013800002F01EFD3B1D00221A605A609A60DA606E
:101390001A610123BB614FF48033FB6100233B6280
:1013A0000123BB6202237B634FF48033BB634FF4A2
:1013B000E013FB6307F11803184601F05FFE0346D4
:1013C000002B01D000F020F90F237B600223BB60CB
:1013D0000023FB604FF480633B6100237B613B1D76
:1013E0000221184602F0CAF80346002B01D000F093
:1013F0000BF900BF4037BD4680BD000080B500AF8F
:10140000064B074A1A60054800F03DFC0346002BD6
:1014100001D000F0F9F800BF80BD00BF9C000020A3
:101420000030024080B500AF124B134A1A60114BD6
:10143000124A5A600F4B00229A600E4B0022DA606B
:101440000C4B4FF480421A610A4B00225A61094B3F
:1014500000229A61074B0022DA61064B00221A62D1
:10146000044800F00BFE0346002B01D000F0CCF83E
:1014700000BF80BDA400002000580040A0860100ED
:1014800080B500AF114B124A1A60104B4FF4E13295
:101490005A600E4B00229A600C4B0022DA600B4B14
:1014A00000221A61094B0C225A61084B00229A61F2
:1014B000064B0022DA61054802F0FAF90346002BD8
:1014C00001D000F0A1F800BF80BD00BFF8000020EF
:1014D0000038014080B500AF114B124A1A60104B22
:1014E0004FF4E1325A600E4B00229A600C4B0022FE
:1014F000DA600B4B00221A61094B0C225A61084B2F
:1015000000229A61064B0022DA61054802F0D0F908
:101510000346002B01D000F077F800BF80BD00BF6C
:101520003C0100200044004080B588B000AF07F1C6
:10153000100300221A605A609A60DA602E4B9B6991
:101540002D4A43F0100393612B4B9B6903F010036A
:10155000FB60FB68284B9B69274A43F0200393619B
:10156000254B9B6903F02003BB60BB68224B9B6942
:10157000214A43F0040393611F4B9B6903F004036A
:101580007B607B681C4B9B691B4A43F0080393619B
:10159000194B9B6903F008033B603B6800224FF442
:1015A0000051164800F03AFD4FF400533B6101230F
:1015B0007B610223BB610223FB6107F11003194623
:1015C0000E4800F0A7FB4FF480533B610C4B7B614E
:1015D0000023BB6107F1100319460A4800F09AFB8B
:1015E00000220021282000F018FB282000F031FB09
:1015F00000BF2037BD4680BD0010024000100140F2
:10160000000011100008014080B400AF72B600BFA6
:10161000FEE7000080B485B000AF154B9B69144A0B
:1016200043F001039361124B9B6903F00103BB601C
:10163000BB680F4BDB690E4A43F08053D3610C4B00
:10164000DB6903F080537B607B680A4B5B68FB605F
:10165000FB6823F0E063FB60FB6843F00073FB6012
:10166000044AFB68536000BF1437BD4680BC704716
:10167000001002400000014080B485B000AF7860E7
:101680007B681B68094A93420BD1094B5B69084A86
:1016900043F040035361064B5B6903F04003FB607A
:1016A000FB6800BF1437BD4680BC70470030024065
:1016B0000010024080B588B000AF786007F11003D9
:1016C00000221A605A609A60DA607B681B68164ACA
:1016D000934224D1154B9B69144A43F0080393614C
:1016E000124B9B6903F00803FB60FB684FF44063F7
:1016F0003B6112237B610323FB6107F11003194651
:101700000B4800F007FB094BDB69084A43F48003F0
:10171000D361064BDB6903F48003BB60BB6800BF89
:101720002037BD4680BD00BF005800400010024079
:10173000000C014080B58AB000AF786007F1180353
:1017400000221A605A609A60DA607B681B68374A28
:10175000934232D1364B9B69354A43F480439361BF
:10176000334B9B6903F480437B617B69304B9B69FE
:101770002F4A43F0040393612D4B9B6903F004034C
:101780003B613B694FF40073BB610223FB610323A0
:101790007B6207F118031946264800F0BBFA4FF4A4
:1017A0008063BB610023FB6100233B6207F11803E8
:1017B0001946204800F0AEFA34E07B681B681E4AE8
:1017C00093422FD11A4BDB69194A43F40033D3619A
:1017D000174BDB6903F40033FB60FB68144B9B6918
:1017E000134A43F004039361114B9B6903F0040314
:1017F000BB60BB680423BB610223FB6103237B62E4
:1018000007F1180319460B4800F084FA0823BB615E
:101810000023FB6100233B6207F1180319460548CA
:1018200000F078FA00BF2837BD4680BD003801407F
:1018300000100240000801400044004080B400AFA6
:10184000FEE780B400AFFEE780B400AFFEE780B4EF
:1018500000AFFEE780B400AFFEE780B400AF00BF8A
:10186000BD4680BC704780B400AF00BFBD4680BCA1
:10187000704780B400AF00BFBD4680BC704780B5E4
:1018800000AF00F0B3F800BF80BD80B500AF4FF4EB
:10189000805000F0DBFB00BF80BD000080B586B04B
:1018A00000AF7860144A154BD31A7B617B693B61AA
:1018B000134B1B68002B02D1114B124A1A60104BBC
:1018C0001A687B6813443A699A4207D202F04EFACA
:1018D00003460C221A604FF0FF3309E0084B1B68E7
:1018E000FB60074B1A687B681344054A1360FB686A
:1018F00018461837BD4680BD005000200004000087
:10190000900000209801002080B400AF00BFBD46C9
:1019100080BC70470C480D490D4A002302E0D458A2
:10192000C4500433C4188C42F9D30A4A0A4C002329
:1019300001E013600432A242FBD3FFF7E5FF02F09F
:101940001BFAFFF783F870470000002070000020AA
:101950002C4B00087000002094010020FEE70000DE
:1019600080B500AF084B1B68074A43F010031360B3
:10197000032000F047F9002000F008F8FFF74AFEC6
:101980000023184680BD00BF0020024080B582B011
:1019900000AF7860124B1A68124B1B7819464FF44F
:1019A0007A73B3FBF1F3B2FBF3F3184600F05FF97F
:1019B0000346002B01D001230EE07B680F2B0AD8D1
:1019C000002279684FF0FF3000F027F9064A7B6863
:1019D0001360002300E0012318460837BD4680BD90
:1019E00000000020080000200400002080B400AFA8
:1019F000054B1B781A46054B1B681344034A1360BA
:101A000000BFBD4680BC7047080000208001002058
:101A100080B400AF024B1B681846BD4680BC7047BF
:101A20008001002080B584B000AF7860FFF7F0FF40
:101A3000B8607B68FB60FB68B3F1FF3F05D00A4BE1
:101A40001B781A46FB681344FB6000BFFFF7E0FFFA
:101A50000246BB68D31AFA689A42F7D800BF00BFA3
:101A60001037BD4680BD00BF0800002080B485B09F
:101A700000AF78607B6803F00703FB600C4BDB680A
:101A8000BB60BA684FF6FF031340BB60FB681A02E5
:101A9000BB68134343F0BF6343F40033BB60044AA5
:101AA000BB68D36000BF1437BD4680BC704700BF21
:101AB00000ED00E080B400AF044BDB681B0A03F0CC
:101AC00007031846BD4680BC704700BF00ED00E02C
:101AD00080B483B000AF0346FB7197F90730002B49
:101AE0000BDBFB7903F01F02064997F907305B090E
:101AF000012000FA02F241F8232000BF0C37BD4656
:101B000080BC704700E100E080B483B000AF0346C2
:101B10003960FB7197F90730002B0ADB3B68DAB2BA
:101B20000C4997F907301201D2B20B4483F8002315
:101B30000AE03B68DAB20849FB7903F00F03043B83
:101B40001201D2B20B441A7600BF0C37BD4680BCDE
:101B5000704700BF00E100E000ED00E080B489B014
:101B600000AFF860B9607A60FB6803F00703FB61BF
:101B7000FB69C3F10703042B28BF0423BB61FB6986
:101B80000433062B02D9FB69033B00E000237B6191
:101B90004FF0FF32BB6902FA03F3DA43BB681A4025
:101BA0007B699A404FF0FF317B6901FA03F3D94317
:101BB0007B680B40134318462437BD4680BC7047F2
:101BC00080B582B000AF78607B68013BB3F1807F65
:101BD00001D301230FE00A4A7B68013B53600F21C8
:101BE0004FF0FF30FFF790FF054B00229A60044B47
:101BF00007221A60002318460837BD4680BD00BF83
:101C000010E000E080B582B000AF78607868FFF740
:101C10002DFF00BF0837BD4680BD80B586B000AF40
:101C20000346B9607A60FB7300237B61FFF742FFD4
:101C300078617A68B9687869FFF790FF024697F98A
:101C40000F3011461846FFF75FFF00BF1837BD463B
:101C500080BD80B582B000AF0346FB7197F90730B5
:101C60001846FFF735FF00BF0837BD4680BD80B579
:101C700082B000AF78607868FFF7A2FF034618468D
:101C80000837BD4680BD80B582B000AF78607B6804
:101C9000002B01D101230EE07B685B79DBB2002BC6
:101CA00005D17B6800221A717868FFF7E5FC7B6834
:101CB00001225A71002318460837BD4680BD80B402
:101CC00087B000AFF860B9607A6000233B61FB68C1
:101CD00002225A7100237B610AE07B699B00BA688B
:101CE0001A44FB681B6812681A607B6901337B61C8
:101CF0007A697B689A42F0D3FB681B681B683B617A
:101D0000FB6801225A713B6918461C37BD4680BCEE
:101D10007047000080B48BB000AF7860396000235A
:101D20007B6200233B6269E101227B6A02FA03F3D2
:101D3000FB613B681B68FA691340BB61BA69FB69C8
:101D40009A4240F058813B685B689A4A93425ED061
:101D5000984A934275D8984A934258D0964A9342EB
:101D60006FD8964A934252D0944A934269D8944A83
:101D700093424CD0924A934263D8924A934246D0BF
:101D8000904A93425DD8122B2AD8122B59D801A21F
:101D900052F823F00F1E0008E91D0008FB1D000883
:101DA0003D1E0008431E0008431E0008431E000895
:101DB000431E0008431E0008431E0008431E00087F
:101DC000431E0008431E0008431E0008431E00086F
:101DD000431E0008431E0008F11D0008051E0008F0
:101DE000794A934213D02CE03B68DB683B6229E0E0
:101DF0003B68DB6804333B6224E03B68DB68083304
:101E00003B621FE03B68DB680C333B621AE03B68D7
:101E10009B68002B02D104233B6213E03B689B6864
:101E2000012B05D108233B627B68FA691A6109E03E
:101E300008233B627B68FA695A6103E000233B6236
:101E400000E000BFBB69FF2B01D87B6801E07B6825
:101E500004337B61BB69FF2B02D87B6A9B0002E0E5
:101E60007B6A083B9B003B617B691A680F213B69D9
:101E700001FA03F3DB431A40396A3B6901FA03F3C1
:101E80001A437B691A603B685B6803F08053002B40
:101E900000F0B1804D4B9B694C4A43F001039361C4
:101EA0004A4B9B6903F00103BB60BB68484A7B6AED
:101EB0009B08023352F82330FB607B6A03F0030374
:101EC0009B000F2202FA03F3DB43FA681340FB6026
:101ED0007B68404A934213D07B683F4A93420DD0BF
:101EE0007B683E4A934207D07B683D4A934201D1CA
:101EF000032306E0042304E0022302E0012300E0C0
:101F000000237A6A02F0030292009340FA681343B6
:101F1000FB602F497B6A9B080233FA6841F8232053
:101F20003B685B6803F48033002B06D02D4B1A68A6
:101F30002C49BB6913430B6006E02A4B1A68BB6946
:101F4000DB43284913400B603B685B6803F40033B4
:101F5000002B06D0234B5A682249BB6913434B60C0
:101F600006E0204B5A68BB69DB431E4913404B60B7
:101F70003B685B6803F48013002B06D0194B9A680A
:101F80001849BB6913438B6006E0164B9A68BB691E
:101F9000DB43144913408B603B685B6803F4001318
:101FA000002B21D00F4BDA680E49BB691343CB607D
:101FB00021E000BF000032100000311000002210AC
:101FC000000021100000121000001110001002404B
:101FD0000000014000080140000C014000100140D9
:101FE00000140140000401400B4BDA68BB69DB437D
:101FF00009491340CB607B6A01337B623B681A68F6
:102000007B6A22FA03F3002B7FF48EAE00BF00BF81
:102010002C37BD4680BC70470004014080B483B0BB
:1020200000AF78600B467B8013467B707B78002B7B
:1020300003D07A887B681A6103E07B881A047B6886
:102040001A6100BF0C37BD4680BC704780B582B0B6
:1020500000AF0346FB80084B5A69FB881340002BF6
:1020600006D0054AFB885361FB881846FEF764FEDC
:1020700000BF0837BD4680BD0004014080B584B074
:1020800000AF78607B68002B01D101232BE17B68D6
:1020900093F83D30DBB2002B06D17B68002283F839
:1020A0003C207868FFF706FB7B68242283F83D20FC
:1020B0007B681B681A687B681B6822F001021A6043
:1020C0007B681B681A687B681B6842F400421A60D0
:1020D0007B681B681A687B681B6822F400421A60E0
:1020E00001F0A0FBF8607B685B68814A934207D8E7
:1020F000FB68804A934294BF01230023DBB206E0D1
:10210000FB687D4A934294BF01230023DBB2002B7E
:1021100001D00123E7E0FB68784AA2FB03239B0C74
:10212000BB607B681B685B6823F03F017B681B68B2
:10213000BA680A435A607B681B681B6A23F03F0138
:102140007B685B686A4A934202D8BB68013309E046
:10215000BB684FF4967202FB03F3694AA2FB0323A8
:102160009B0901337A6812680B4313627B681B6812
:10217000DB6923F44F4222F0FF027B685B685C4915
:102180008B4219D8FB68591E7B685B685B00B1FB0A
:10219000F3F3591C40F6FC730B40002B0AD0FB688C
:1021A000591E7B685B685B00B1FBF3F30133C3F33B
:1021B0000B0351E004234FE07B689B68002B11D197
:1021C000FB68581E7B6859680B465B000B44B0FBEC
:1021D000F3F30133C3F30B03002B0CBF01230023E4
:1021E000DBB212E0FB68581E7B6859680B469B0007
:1021F0000B4499000B44B0FBF3F30133C3F30B031F
:10220000002B0CBF01230023DBB2002B01D00123E4
:1022100022E07B689B68002B0ED1FB68581E7B6810
:1022200059680B465B000B44B0FBF3F30133C3F377
:102230000B0343F400430FE0FB68581E7B685968AA
:102240000B469B000B4499000B44B0FBF3F30133A6
:10225000C3F30B0343F44043796809681343CB612C
:102260007B681B681B6823F0C0017B68DA697B68A8
:102270001B6A1A437B681B680A431A607B681B68E9
:102280009B6823F4034323F0FF037A6811697A689B
:10229000D26811437A6812680B4393607B681B68AD
:1022A000DB6823F0FF017B685A697B689B691A43EE
:1022B0007B681B680A43DA607B681B681A687B6866
:1022C0001B6842F001021A607B6800221A647B6876
:1022D000202283F83D207B6800221A637B6800225D
:1022E00083F83E20002318461037BD4680BD00BF4E
:1022F000A08601007F841E00FF083D0083DE1B4393
:10230000D34D621080B588B002AFF8600846114620
:102310001A4603467B810B463B811346FB80FFF741
:1023200077FB7861FB6893F83D30DBB2202B40F0FF
:10233000D9807B690093192301226D49F86800F068
:10234000C1FC0346002B01D00223CCE0FB6893F8CC
:102350003C30012B01D10223C5E0FB68012283F848
:102360003C20FB681B681B6803F00103012B07D0AE
:10237000FB681B681A68FB681B6842F001021A6060
:10238000FB681B681A68FB681B6822F400621A600D
:10239000FB68212283F83D20FB68402283F83E2021
:1023A000FB6800221A64FB683A6A5A62FB68BA8CBE
:1023B0005A85FB685B8D9AB2FB681A85FB684D4AAB
:1023C000DA62F8883A8979897B690193BB6A00935C
:1023D0000346F86800F0F8FA0346002B52D00123B8
:1023E00081E07A69B96AF86800F042FD0346002B83
:1023F0000DD0FB681B6C042B07D1FB681B681A68A7
:10240000FB681B6842F400721A6001236BE0FB68F2
:102410005B6A1A78FB681B681A61FB685B6A5A1C66
:10242000FB685A62FB681B8D013B9AB2FB681A85F8
:10243000FB685B8D9BB2013B9AB2FB685A85FB68D7
:102440001B685B6903F00403042B1BD1FB681B8D25
:10245000002B17D0FB685B6A1A78FB681B681A614F
:10246000FB685B6A5A1CFB685A62FB681B8D013B68
:102470009AB2FB681A85FB685B8D9BB2013B9AB2EE
:10248000FB685A85FB681B8D002BAAD17A69B96A53
:10249000F86800F02EFD0346002B0DD0FB681B6C86
:1024A000042B07D1FB681B681A68FB681B6842F4A1
:1024B00000721A60012316E0FB681B681A68FB684B
:1024C0001B6842F400721A60FB68202283F83D20EA
:1024D000FB68002283F83E20FB68002283F83C2042
:1024E000002300E0022318461837BD4680BD00BF18
:1024F000020010000000FFFF80B58CB002AFF86052
:10250000084611461A4603467B810B463B8113461B
:10251000FB8000233B62FFF77BFA7862FB6893F84D
:102520003D30DBB2202B40F044827B6A00931923BC
:1025300001228249F86800F0C5FB0346002B01D058
:10254000022337E2FB6893F83C30012B01D10223D0
:1025500030E2FB68012283F83C20FB681B681B68A3
:1025600003F00103012B07D0FB681B681A68FB68A6
:102570001B6842F001021A60FB681B681A68FB685E
:102580001B6822F400621A60FB68222283F83D2057
:10259000FB68402283F83E20FB6800221A64FB6837
:1025A0003A6B5A62FB68BA8E5A85FB685B8D9AB2A9
:1025B000FB681A85FB68624ADA62F8883A89798989
:1025C0007B6A0193BB6B00930346F86800F092FAB4
:1025D0000346002B01D00123ECE1FB681B8D002B8F
:1025E00013D10023FB61FB681B685B69FB61FB681F
:1025F0001B689B69FB61FB69FB681B681A68FB68C9
:102600001B6842F400721A60C0E1FB681B8D012B4D
:102610001ED1FB681B681A68FB681B6822F4806285
:102620001A6072B600BF0023BB61FB681B685B6960
:10263000BB61FB681B689B69BB61BB69FB681B686E
:102640001A68FB681B6842F400721A6062B635E0D3
:10265000FB681B8D022B1ED1FB681B681A68FB6888
:102660001B6842F400621A6072B600BF00237B61EF
:10267000FB681B685B697B61FB681B689B697B610E
:102680007B69FB681B681A68FB681B6822F4806220
:102690001A6062B612E0FB681B681A68FB681B6868
:1026A00042F480621A6000233B61FB681B685B692F
:1026B0003B61FB681B689B693B613B6966E1FB68AA
:1026C0001B8D032B00F21F81FB681B8D012B23D177
:1026D0007A6AB96BF86800F04DFC0346002B01D014
:1026E000012367E1FB681B681A69FB685B6AD2B269
:1026F0001A70FB685B6A5A1CFB685A62FB681B8D88
:10270000013B9AB2FB681A85FB685B8D9BB2013B6B
:102710009AB2FB685A8539E1FB681B8D022B52D1B6
:102720007B6A0093BB6B00220649F86800F0CAFA86
:102730000346002B08D001233CE100BF020010003B
:102740000000FFFF0400010072B600BFFB681B68B9
:102750001A68FB681B6842F400721A60FB681B6809
:102760001A69FB685B6AD2B21A70FB685B6A5A1C12
:10277000FB685A62FB681B8D013B9AB2FB681A85A5
:10278000FB685B8D9BB2013B9AB2FB685A8562B6CF
:1027900000BFFB681B681A69FB685B6AD2B21A70DB
:1027A000FB685B6A5A1CFB685A62FB681B8D013B25
:1027B0009AB2FB681A85FB685B8D9BB2013B9AB2AB
:1027C000FB685A85E2E07B6A0093BB6B00227B4981
:1027D000F86800F077FA0346002B01D00123E9E006
:1027E000FB681B681A68FB681B6822F480621A6029
:1027F00072B600BFFB681B681A69FB685B6AD2B2DD
:102800001A70FB685B6A5A1CFB685A62FB681B8D76
:10281000013B9AB2FB681A85FB685B8D9BB2013B5A
:102820009AB2FB685A85664B1B68DB08654AA2FBB7
:1028300003231A0A13469B001344DA00D31A3B629F
:102840003B6A013B3B623B6A002B18D1FB680022CC
:102850001A63FB68202283F83D20FB68002283F87E
:102860003E20FB681B6C43F02002FB681A6462B6D2
:1028700000BFFB68002283F83C2001239AE0FB683C
:102880001B685B6903F00403042BD9D1FB681B6848
:102890001A68FB681B6842F400721A60FB681B68C8
:1028A0001A69FB685B6AD2B21A70FB685B6A5A1CD1
:1028B000FB685A62FB681B8D013B9AB2FB681A8564
:1028C000FB685B8D9BB2013B9AB2FB685A8562B68E
:1028D00000BFFB681B681A69FB685B6AD2B21A709A
:1028E000FB685B6A5A1CFB685A62FB681B8D013BE4
:1028F0009AB2FB681A85FB685B8D9BB2013B9AB26A
:10290000FB685A8542E07A6AB96BF86800F032FBDE
:102910000346002B01D001234CE0FB681B681A69B9
:10292000FB685B6AD2B21A70FB685B6A5A1CFB6870
:102930005A62FB681B8D013B9AB2FB681A85FB68E3
:102940005B8D9BB2013B9AB2FB685A85FB681B68A2
:102950005B6903F00403042B18D1FB681B681A6938
:10296000FB685B6AD2B21A70FB685B6A5A1CFB6830
:102970005A62FB681B8D013B9AB2FB681A85FB68A3
:102980005B8D9BB2013B9AB2FB685A85FB681B8D3D
:10299000002B7FF494AEFB68202283F83D20FB6877
:1029A000002283F83E20FB68002283F83C200023AD
:1029B00000E0022318462837BD4680BD0400010010
:1029C0000000002089B5F81480B588B002AFF86027
:1029D000084611461A4603467B810B463B81134647
:1029E000FB80FB681B681A68FB681B6842F48072F6
:1029F0001A607B6A00933B6A00224FF00111F8686D
:102A000000F060F90346002B0DD0FB681B681B68C3
:102A100003F48073B3F5807F03D1FB684FF4007239
:102A20001A6403235FE07B89DBB21A46FB681B68EC
:102A300002F0FE021A617B6A3A6A2D49F86800F0DA
:102A400098F90346002B01D001234CE000237B6161
:102A5000FB681B685B697B61FB681B689B697B612A
:102A60007B697A6A396AF86800F002FA0346002B3B
:102A70000DD0FB681B6C042B07D1FB681B681A6820
:102A8000FB681B6842F400721A6001232BE0FB888C
:102A9000012B05D13B89DAB2FB681B681A6121E082
:102AA0003B891B0A9BB2DAB2FB681B681A617A6A1F
:102AB000396AF86800F0DCF90346002B0DD0FB689A
:102AC0001B6C042B07D1FB681B681A68FB681B682A
:102AD00042F400721A60012305E03B89DAB2FB6818
:102AE0001B681A61002318461837BD4680BD00BF19
:102AF0000200010080B588B002AFF86008461146B8
:102B00001A4603467B810B463B811346FB80FB68DC
:102B10001B681A68FB681B6842F480621A60FB68D5
:102B20001B681A68FB681B6842F480721A607B6A33
:102B300000933B6A00224FF00111F86800F0C2F8E0
:102B40000346002B0DD0FB681B681B6803F48073E1
:102B5000B3F5807F03D1FB684FF400721A6403233E
:102B6000AAE07B89DBB21A46FB681B6802F0FE0212
:102B70001A617B6A3A6A5249F86800F0FAF803462B
:102B8000002B01D0012397E000237B61FB681B68C9
:102B90005B697B61FB681B689B697B617B697A6A07
:102BA000396AF86800F064F90346002B0DD0FB6821
:102BB0001B6C042B07D1FB681B681A68FB681B6839
:102BC00042F400721A60012376E0FB88012B05D1E4
:102BD0003B89DAB2FB681B681A6121E03B891B0A5A
:102BE0009BB2DAB2FB681B681A617A6A396AF868C4
:102BF00000F03EF90346002B0DD0FB681B6C042B44
:102C000007D1FB681B681A68FB681B6842F40072F6
:102C10001A60012350E03B89DAB2FB681B681A6135
:102C20007A6A396AF86800F023F90346002B0DD060
:102C3000FB681B6C042B07D1FB681B681A68FB68D8
:102C40001B6842F400721A60012335E0FB681B68C0
:102C50001A68FB681B6842F480721A607B6A0093F2
:102C60003B6A00224FF00111F86800F02BF8034690
:102C7000002B0DD0FB681B681B6803F48073B3F551
:102C8000807F03D1FB684FF400721A64032313E0C2
:102C90007B89DBB243F00103DAB2FB681B681A617F
:102CA0007B6A3A6A0649F86800F063F80346002B2D
:102CB00001D0012300E0002318461837BD4680BD2F
:102CC0000200010080B584B000AFF860B9603B60DD
:102CD0001346FB7125E03B68B3F1FF3F21D0FEF7BF
:102CE00097FE0246BB69D31A3A689A4202D33B6800
:102CF000002B16D1FB6800221A63FB68202283F8A0
:102D00003D20FB68002283F83E20FB681B6C43F0EB
:102D10002002FB681A64FB68002283F83C20012330
:102D200023E0BB681B0CDBB2012B0DD1FB681B68D9
:102D30005B69DA43BB6813409BB2002B0CBF0123D5
:102D40000023DBB21A460CE0FB681B689B69DA4380
:102D5000BB6813409BB2002B0CBF01230023DBB2E6
:102D60001A46FB799A42B6D0002318461037BD4662
:102D700080BD80B584B000AFF860B9607A603B6018
:102D800051E0FB681B685B6903F48063B3F5806FF7
:102D900023D1FB681B681A68FB681B6842F4007249
:102DA0001A60FB681B686FF480625A61FB6800223E
:102DB0001A63FB68202283F83D20FB68002283F819
:102DC0003E20FB681B6C43F00402FB681A64FB683E
:102DD000002283F83C20012346E07B68B3F1FF3FEB
:102DE00021D0FEF715FE02463B68D31A7A689A4254
:102DF00002D37B68002B16D1FB6800221A63FB68A4
:102E0000202283F83D20FB68002283F83E20FB68E7
:102E10001B6C43F02002FB681A64FB68002283F8F5
:102E20003C20012320E0BB681B0CDBB2012B0CD142
:102E3000FB681B685B69DA43BB6813409BB2002BDD
:102E400014BF01230023DBB20BE0FB681B689B6906
:102E5000DA43BB6813409BB2002B14BF012300234D
:102E6000DBB2002B8DD1002318461037BD4680BD44
:102E700080B584B000AFF860B9607A602DE0F86882
:102E800000F0CEF80346002B01D001232DE0BB68F3
:102E9000B3F1FF3F21D0FEF7BBFD02467B68D31A9A
:102EA000BA689A4202D3BB68002B16D1FB68002295
:102EB0001A63FB68202283F83D20FB68002283F818
:102EC0003E20FB681B6C43F02002FB681A64FB6821
:102ED000002283F83C20012307E0FB681B685B6944
:102EE00003F08003802BCAD1002318461037BD465B
:102EF00080BD80B584B000AFF860B9607A602DE025
:102F0000F86800F08DF80346002B01D001232DE076
:102F1000BB68B3F1FF3F21D0FEF77AFD02467B6824
:102F2000D31ABA689A4202D3BB68002B16D1FB6849
:102F300000221A63FB68202283F83D20FB680022F0
:102F400083F83E20FB681B6C43F02002FB681A6488
:102F5000FB68002283F83C20012307E0FB681B6824
:102F60005B6903F00403042BCAD100231846103711
:102F7000BD4680BD80B584B000AFF860B9607A60AE
:102F800042E0FB681B685B6903F01003102B19D14A
:102F9000FB681B686FF010025A61FB6800221A631D
:102FA000FB68202283F83D20FB68002283F83E2046
:102FB000FB681A6CFB681A64FB68002283F83C20EB
:102FC000012329E0FEF724FD02467B68D31ABA6884
:102FD0009A4202D3BB68002B16D1FB6800221A6309
:102FE000FB68202283F83D20FB68002283F83E2006
:102FF000FB681B6C43F02002FB681A64FB6800222C
:1030000083F83C20012307E0FB681B685B6903F041
:103010004003402BB5D1002318461037BD4680BD74
:1030200080B483B000AF78607B681B685B6903F491
:103030008063B3F5806F1BD17B681B686FF480627F
:103040005A617B6800221A637B68202283F83D2046
:103050007B68002283F83E207B681B6C43F00402EF
:103060007B681A647B68002283F83C20012300E01F
:10307000002318460C37BD4680BC704780B586B02B
:1030800000AF78607B68002B01D101236CE27B6884
:103090001B6803F00103002B00F08780924B5B68F4
:1030A00003F00C03042B0CD08F4B5B6803F00C0374
:1030B000082B12D18C4B5B6803F48033B3F5803F4F
:1030C0000BD1894B1B6803F40033002B6CD07B6859
:1030D0005B68002B68D1012346E27B685B68B3F52F
:1030E000803F06D1804B1B687F4A43F480331360D6
:1030F0002EE07B685B68002B0CD17B4B1B687A4A07
:1031000023F480331360784B1B68774A23F48023C1
:1031100013601DE07B685B68B3F5A02F0CD1724B88
:103120001B68714A43F4802313606F4B1B686E4A1F
:1031300043F4803313600BE06B4B1B686A4A23F443
:1031400080331360684B1B68674A23F48023136045
:103150007B685B68002B13D0FEF75AFC386108E0EF
:10316000FEF756FC02463B69D31A642B01D90323B0
:10317000FAE15D4B1B6803F40033002BF0D014E040
:10318000FEF746FC386108E0FEF742FC02463B6968
:10319000D31A642B01D90323E6E1534B1B6803F4D4
:1031A0000033002BF0D100E000BF7B681B6803F008
:1031B0000203002B63D04C4B5B6803F00C03002B25
:1031C0000BD0494B5B6803F00C03082B1CD1464B1A
:1031D0005B6803F48033002B16D1434B1B6803F06C
:1031E0000203002B05D07B681B69012B01D0012352
:1031F000BAE13D4B1B6823F0F8027B685B69DB009A
:10320000394913430B603AE07B681B69002B20D0DF
:10321000364B01221A60FEF7FBFB386108E0FEF72F
:10322000F7FB02463B69D31A022B01D903239BE12A
:103230002D4B1B6803F00203002BF0D02A4B1B68B8
:1032400023F0F8027B685B69DB00274913430B60BE
:1032500015E0264B00221A60FEF7DAFB386108E021
:10326000FEF7D6FB02463B69D31A022B01D9032392
:103270007AE11D4B1B6803F00203002BF0D17B6841
:103280001B6803F00803002B3AD07B689B69002B76
:1032900019D0174B01221A60FEF7BAFB386108E01B
:1032A000FEF7B6FB02463B69D31A022B01D9032372
:1032B0005AE10D4B5B6A03F00203002BF0D00120B2
:1032C00000F0D8FA1CE00A4B00221A60FEF7A0FBBF
:1032D00038610FE0FEF79CFB02463B69D31A022BD4
:1032E00008D9032340E100BF001002400000424221
:1032F000800442429E4B5B6A03F00203002BE9D13B
:103300007B681B6803F00403002B00F0A6800023F9
:10331000FB75974BDB6903F08053002B0DD1944B69
:10332000DB69934A43F08053D361914BDB6903F02F
:103330008053BB60BB680123FB758E4B1B6803F495
:103340008073002B18D18B4B1B688A4A43F480731F
:103350001360FEF75DFB386108E0FEF759FB02469B
:103360003B69D31A642B01D90323FDE0814B1B6811
:1033700003F48073002BF0D07B68DB68012B06D14F
:103380007B4B1B6A7A4A43F0010313622DE07B6892
:10339000DB68002B0CD1764B1B6A754A23F00103C6
:1033A0001362734B1B6A724A23F0040313621CE01E
:1033B0007B68DB68052B0CD16D4B1B6A6C4A43F0B4
:1033C000040313626A4B1B6A694A43F001031362E8
:1033D0000BE0674B1B6A664A23F001031362644BE0
:1033E0001B6A634A23F0040313627B68DB68002BCB
:1033F00015D0FEF70DFB38610AE0FEF709FB024627
:103400003B69D31A41F28832934201D90323ABE0DE
:10341000574B1B6A03F00203002BEED014E0FEF7BB
:10342000F7FA38610AE0FEF7F3FA02463B69D31A6D
:1034300041F28832934201D9032395E04C4B1B6A39
:1034400003F00203002BEED1FB7D012B05D1484B8D
:10345000DB69474A23F08053D3617B68DB69002B2B
:1034600000F08180424B5B6803F00C03082B61D0B5
:103470007B68DB69022B46D13F4B00221A60FEF7C6
:10348000C7FA386108E0FEF7C3FA02463B69D31A6F
:10349000022B01D9032367E0354B1B6803F000734F
:1034A000002BF0D17B681B6AB3F5803F08D1304B0D
:1034B0005B6823F400327B689B682D4913434B60A3
:1034C0002B4B5B6823F474127B68196A7B685B6A18
:1034D0000B43274913434B60274B01221A60FEF729
:1034E00097FA386108E0FEF793FA02463B69D31A6F
:1034F000022B01D9032337E01D4B1B6803F0007337
:10350000002BF0D02FE01C4B00221A60FEF780FA4F
:10351000386108E0FEF77CFA02463B69D31A022BB9
:1035200001D9032320E0124B1B6803F00073002B2A
:10353000F0D118E07B68DB69012B01D1012313E096
:103540000B4B5B68FB60FB6803F480327B681B6A93
:103550009A4206D1FB6803F470127B685B6A9A4258
:1035600001D0012300E0002318461837BD4680BD76
:1035700000100240007000406000424280B584B0FC
:1035800000AF786039607B68002B01D10123D0E067
:103590006A4B1B6803F007033A689A4210D9674BDD
:1035A0001B6823F0070265493B6813430B60634BBC
:1035B0001B6803F007033A689A4201D00123B8E080
:1035C0007B681B6803F00203002B20D07B681B681C
:1035D00003F00403002B05D0594B5B68584A43F4B1
:1035E000E06353607B681B6803F00803002B05D081
:1035F000534B5B68524A43F460535360504B5B68D3
:1036000023F0F0027B689B684D4913434B607B6855
:103610001B6803F00103002B40D07B685B68012B23
:1036200007D1474B1B6803F40033002B15D101234E
:103630007FE07B685B68022B07D1414B1B6803F07E
:103640000073002B09D1012373E03D4B1B6803F08D
:103650000203002B01D101236BE0394B5B6823F09F
:1036600003027B685B68364913434B60FEF7D0F971
:10367000F8600AE0FEF7CCF90246FB68D31A41F283
:103680008832934201D9032353E02D4B5B6803F04A
:103690000C027B685B689B009A42EBD1274B1B684E
:1036A00003F007033A689A4210D2244B1B6823F0B8
:1036B000070222493B6813430B60204B1B6803F051
:1036C00007033A689A4201D0012332E07B681B6805
:1036D00003F00403002B08D0194B5B6823F4E0626D
:1036E0007B68DB68164913434B607B681B6803F0FB
:1036F0000803002B09D0124B5B6823F460527B68EF
:103700001B69DB000E4913434B6000F021F80246B1
:103710000B4B5B681B0903F00F030A49CB5C22FAD1
:1037200003F3094A1360094B1B681846FEF72EF98C
:10373000002318461037BD4680BD00BF0020024060
:1037400000100240D84900080000002004000020BA
:1037500090B48AB000AF2A4B3C1D0FCB84E80F0019
:1037600040F201233B800023FB610023BB61002367
:103770007B6200237B6100233B62224B5B68FB6121
:10378000FB6903F00C03042B02D0082B03D02DE0BF
:103790001D4B3B622DE0FB699B0C03F00F0307F10F
:1037A0002802134413F8243C7B61FB6903F4803343
:1037B000002B13D0134B5B685B0C03F0010307F184
:1037C0002802134413F8283CBB617B690E4A02FBB4
:1037D00003F2BB69B2FBF3F37B6204E07B690B4A43
:1037E00002FB03F37B627B6A3B6202E0064B3B62B7
:1037F00000BF3B6A18462837BD4690BC704700BFE3
:10380000C84900080010024000127A0000093D007B
:1038100080B400AF024B1B681846BD4680BC7047A1
:103820000000002080B500AFFFF7F2FF0246054B15
:103830005B681B0A03F007030349CB5C22FA03F31E
:10384000184680BD00100240E849000880B500AF6E
:10385000FFF7DEFF0246054B5B68DB0A03F0070358
:103860000349CB5C22FA03F3184680BD00100240E6
:10387000E849000880B485B000AF78600A4B1B6847
:103880000A4AA2FB03235B0A7A6802FB03F3FB608C
:1038900000BFFB685A1EFA60002BF9D100BF00BFC1
:1038A0001437BD4680BC704700000020D34D621025
:1038B00080B582B000AF78607B68002B01D1012316
:1038C0003FE07B6893F83D30DBB2002B06D17B688C
:1038D000002283F83C207868FDF72CFF7B682422C7
:1038E00083F83D207B681B68DA687B681B6822F4DC
:1038F0000052DA60786800F0A7F97B681B681A69E3
:103900007B681B6822F490421A617B681B685A69C5
:103910007B681B6822F02A025A617B681B68DA68A0
:103920007B681B6842F40052DA607B6800221A64EC
:103930007B68202283F83D207B68202283F83E208C
:10394000002318460837BD4680BD80B58AB002AF57
:10395000F860B9603B601346FB8000237B61FB6825
:1039600093F83D30DBB2202B7CD1BB68002B02D01A
:10397000FB88002B01D1012375E0FB6893F83C30F4
:10398000012B01D102236EE0FB68012283F83C2069
:10399000FB6800221A64FB68212283F83D20FEF7B1
:1039A00037F87861FB68FA889A84FB68FA88DA84C9
:1039B000FB689B68B3F5805F08D1FB681B69002B2F
:1039C00004D10023FB61BB68BB6103E0BB68FB6102
:1039D0000023BB61FB68002283F83C202AE03B689F
:1039E00000937B6900228021F86800F0E2F803462A
:1039F000002B01D0032336E0FB69002B0BD1BB6900
:103A00001B881A46FB681B68C2F308025A60BB6930
:103A10000233BB6107E0FB691A78FB681B685A60D8
:103A2000FB690133FB61FB68DB8C9BB2013B9AB203
:103A3000FB68DA84FB68DB8C9BB2002BCFD13B6840
:103A400000937B6900224021F86800F0B2F8034639
:103A5000002B01D0032306E0FB68202283F83D20E1
:103A6000002300E0022318462037BD4680BD80B504
:103A70008AB002AFF860B9603B601346FB80002358
:103A80007B61FB6893F83E30DBB2202B40F08C80EA
:103A9000BB68002B02D0FB88002B01D1012384E0FE
:103AA000FB6893F83C30012B01D102237DE0FB68D9
:103AB000012283F83C20FB6800221A64FB68222262
:103AC00083F83E20FB6800221A63FDF7A1FF7861AE
:103AD000FB68FA889A85FB68FA88DA85FB689B6838
:103AE000B3F5805F08D1FB681B69002B04D100236C
:103AF000FB61BB68BB6103E0BB68FB610023BB618A
:103B0000FB68002283F83C2043E03B6800937B691C
:103B100000222021F86800F04CF80346002B01D069
:103B2000032342E0FB69002B0CD1FB681B685B6838
:103B30009BB2C3F308039AB2BB691A80BB69023314
:103B4000BB611FE0FB689B68B3F5805F07D0FB6833
:103B50009B68002B0AD1FB681B69002B06D1FB6810
:103B60001B685B68DAB2FB691A7008E0FB681B68C7
:103B70005B68DBB203F07F03DAB2FB691A70FB69A2
:103B80000133FB61FB68DB8D9BB2013B9AB2FB68A2
:103B9000DA85FB68DB8D9BB2002BB6D1FB68202257
:103BA00083F83E20002300E0022318462037BD465C
:103BB00080BD80B584B000AFF860B9603B6013464B
:103BC000FB712CE0BB69B3F1FF3F28D0BB69002B30
:103BD00007D0FDF71DFF02463B68D31ABA699A4227
:103BE0001DD2FB681B68DA68FB681B6822F4D07280
:103BF000DA60FB681B685A69FB681B6822F00102E7
:103C00005A61FB68202283F83D20FB68202283F85C
:103C10003E20FB68002283F83C2003230FE0FB6872
:103C20001B681A68BB681340BA689A420CBF01232C
:103C30000023DBB21A46FB799A42C3D00023184610
:103C40001037BD4680BD000080B584B000AF7860FD
:103C50007B681B681B6923F440517B68DA687B68CA
:103C60001B680A431A617B689A687B681B691A4360
:103C70007B685B691343BB607B681B68DB6823F46C
:103C8000B05323F00C037A681268B9680B43D36011
:103C90007B681B685B6923F440717B689A697B6869
:103CA0001B680A435A617B681B682C4A934203D104
:103CB000FFF7CCFDF86002E0FFF7B4FDF860FA68AA
:103CC00013469B0013449A001A447B685B689B0070
:103CD000B2FBF3F3224AA2FB03235B091901FA6842
:103CE00013469B0013449A001A447B685B689B0050
:103CF000B2FBF3F21A4BA3FB02035B09642000FB47
:103D000003F3D31A1B013233154AA2FB03235B09C9
:103D100003F0F0031944FA6813469B0013449A0019
:103D20001A447B685B689B00B2FBF3F20C4BA3FB6D
:103D300002035B09642000FB03F3D31A1B01323337
:103D4000074AA2FB03235B0903F00F027B681B6891
:103D50000A449A6000BF1037BD4680BD003801405C
:103D60001F85EB510A22002100F0D8B8014B1868DA
:103D7000704700BF0C00002070B500260C4D0D4CA4
:103D8000641BA410A64209D100F06EFD00260A4D66
:103D90000A4C641BA410A64205D170BD55F8043B23
:103DA00098470136EEE755F8043B98470136F2E7AD
:103DB000244B0008244B0008244B0008284B000823
:103DC00003460244934200D1704703F8011BF9E710
:103DD0000EB46FF0004100B59CB01DAB0290069090
:103DE000079104910848094953F8042B059100688C
:103DF00002A9019300F0F8F80022029B1A701CB08F
:103E00005DF804EB03B070470C0000200802FFFFD0
:103E1000012B2DE9F047864601D0242B06D9FFF768
:103E2000A5FF162303600020BDE8F0878C463A4EBC
:103E300060461CF8014BA55D15F00805F8D12D2C46
:103E400033D14FF001089CF8004000F1020C002B28
:103E50005DD0102B0CD1302C0AD19CF8000000F062
:103E6000DF0058284ED110239CF801400CF1020CC1
:103E7000002508F10047013FB7FBF3F9284603FB93
:103E8000197AA4F13006092E18D83446A34224DD4D
:103E9000002D1FDB81451DD301D1A2451ADB012571
:103EA00000FB03401CF8014BEBE72B2C08BF9CF8F0
:103EB0000040A84608BF00F1020CC8E7A4F1410683
:103EC000192E01D8373CE1E7A4F16106192E04D878
:103ED000573CDBE74FF0FF35E4E7002D08DA2223FB
:103EE0003846CEF80030002A9ED00CF1FF3107E0B2
:103EF000B8F1000F00D04042002A95D0002DF4D137
:103F0000116091E73024002BB2D10823B0E7302CA8
:103F1000A3D00A23ACE700BFF149000813460A46C4
:103F2000014602480068FFF773BF00BF0C00002085
:103F30002DE9F0478E6882469E420C4690461F4609
:103F400038D88A8912F4906F32D025680969013314
:103F5000A5EB010965694B4405EB450505EBD575F6
:103F60006D109D4238BF1D46530531D5294600F0DE
:103F700053FB064650B90C234FF0FF30CAF800300F
:103F8000A38943F04003A381BDE8F0874A46216935
:103F900000F0CEFAA38923F4906343F08003A38159
:103FA00026614E4426603E466561A5EB0905A56085
:103FB000BE4200D93E4632464146206800F0C6FA6D
:103FC000A36822689B1B32440020A3602260DBE7C9
:103FD0002A4600F07BFB06460028E1D150462169C5
:103FE00000F0CEFAC7E700002DE9F04F98468B8924
:103FF00007461B060D4614469DB00ED50B6963B9E6
:10400000402100F009FB2860286120B90C233B60A7
:104010004FF0FF30D1E040236B6100230993202350
:104020008DF8293030234FF00109CDF80C80DFF8EE
:10403000A4818DF82A3023469A4613F8012B0AB141
:10404000252AF9D1BAEB040B0BD05B462246294650
:104050003846FFF76DFF013000F0AA80099A5A44F4
:1040600009929AF80030002B00F0A28000234FF054
:10407000FF32CDE905230AF1010A049307938DF875
:1040800053301A935446052214F8011B514800F08E
:1040900041FA049AD8B9D00644BF20238DF8533092
:1040A000110744BF2B238DF853309AF800302A2B88
:1040B00015D0544600204FF00A0C079A214611F8FB
:1040C000013B303B092B4ED9B0B1079214E0A0EB75
:1040D000080309FA03F31343A2460493D2E7039BB0
:1040E000191D1B680391002BBBBF5B4242F002020B
:1040F00007930793B8BF049223782E2B0CD16378D3
:104100002A2B35D1039B02341A1D1B680392002B06
:10411000B8BF4FF0FF330593DFF8C8A00322504625
:10412000217800F0F7F940B14023A0EB0A0003FA30
:1041300000F0049B01340343049314F8011B06228E
:1041400025488DF8281000F0E5F9002838D0234BD9
:104150001BBB039B073323F0070308330393099B1F
:104160003344099367E70C4601200CFB0232A5E7B4
:1041700000234FF00A0C194601340593204610F82D
:10418000012B303A092A03D9002BC5D00591C3E78A
:10419000044601230CFB0121F0E703AB00932A4600
:1041A00038460F4B04A9AFF30080421C0646D6D117
:1041B000AB895B063FF52CAF09981DB0BDE8F08FC9
:1041C00003AB00932A463846054B04A900F07CF85F
:1041D000EBE700BFF14A0008FB4A000800000000BE
:1041E000313F0008F74A00082DE9F0471646994686
:1041F0008A680B6907469342B8BF1346336091F84B
:1042000043200C46DDF820800AB101333360236877
:10421000990642BF336802333360256815F00605FE
:1042200006D104F1190AE36832689B1AAB4228DC14
:1042300094F84320131E226818BF012392062DD440
:104240004946384604F14302C047013020D0236874
:10425000E56803F00603042B18BF002532684FF011
:104260000006A36808BFAD1A226908BF25EAE575F4
:104270009342C4BF9B1AED181A34B5421AD10020DC
:1042800008E00123524649463846C047013003D171
:104290004FF0FF30BDE8F0870135C4E73020E1186A
:1042A00081F843005A1C94F845102244023382F8E6
:1042B0004310C5E70123224649463846C04701302E
:1042C000E6D00136D9E700002DE9FF470C46277EEE
:1042D0009146782F80469A460C9904F1430207D8FC
:1042E000622F0AD8002F00F0D980582F00F0A48048
:1042F00004F1420684F842703AE0A7F16303152BFB
:10430000F6D801A050F823F0614300087543000877
:10431000F1420008F1420008F1420008F1420008B1
:1043200075430008F1420008F1420008F14200081C
:10433000F142000883440008A543000865440008D2
:10434000F1420008F1420008A5440008F1420008CB
:10435000A5430008F1420008F14200086D4400083E
:104360000B6804F142061A1D1B680A6084F842308B
:104370000123A4E0256808682E0600F104030AD58D
:1043800005680B60002D03DA2D236D4284F843305D
:104390000A235E4819E015F0400F05680B6018BF4E
:1043A0002DB2EFE70B682568181D0860280601D5B7
:1043B0001D6802E06906FBD51D886F2F0CBF08231E
:1043C0000A235248002184F843106668002EA8BFD3
:1043D0002168A660A4BF21F0040121600DB9002E60
:1043E0004DD01646B5FBF3F103FB1157C75D06F838
:1043F000017D2F46BB420D46F4D9082B0BD1236813
:10440000DF0708D5236961689942DEBF302306F8CB
:10441000013C06F1FF36921B22614B462146404685
:10442000CDF800A003AAFFF7DFFE01304CD14FF01A
:10443000FF3004B0BDE8F087344884F845700E685A
:10444000236856F8045B1F060E6014D5D90744BFD5
:1044500043F0200323601DB9236823F02003236069
:104460001023AFE7236843F0200323607823284814
:1044700084F84530E3E75E0648BFADB2E6E716468E
:10448000BBE70B6826681D1D60690D6035061B685B
:1044900001D5186002E07106FBD51880002316468E
:1044A0002361BAE70B681A1D0A601E6800213046B6
:1044B000626800F02FF808B1801B606063682361B8
:1044C000002384F84330A8E7324649464046236932
:1044D000D0470130ABD023689B0713D4E068039B1F
:1044E0009842B8BF1846A4E70123324649464046E1
:1044F000D04701309BD00135E36803995B1AAB428A
:10450000F2DCEBE7002504F11906F5E7024B0008A1
:10451000134B0008034610B5C9B202449342184633
:1045200001D1002003E0047801338C42F6D110BDA4
:104530000A44914200F1FF3300D1704710B511F8E1
:10454000014B914203F8014FF9D110BD884210B5DB
:1045500001EB020402D98442234607D8431EA1423C
:1045600008D011F8012B03F8012FF8E701460244A7
:104570008A4200D110BD13F8014D02F8014DF7E752
:1045800038B50546002943D051F8043C0C1F002BD8
:10459000B8BFE41800F0D0F81E4A1368104633B9CB
:1045A000636014602846BDE8384000F0CBB8A342F1
:1045B0000AD921686218934201BF1A685B685218D1
:1045C000226063600460EDE71A465B680BB1A342AA
:1045D000FAD911685018A0420BD120680144501834
:1045E00083421160DED118685B680144116053603A
:1045F000D8E702D90C232B60D4E7206821188B421E
:1046000001BF19685B680918216063605460C9E7DD
:1046100038BD00BF94000020F8B5CD1C25F003057F
:1046200008350C2D38BF0C25002D064601DBA942AC
:1046300003D90C2333600020F8BD00F07DF8214938
:104640000A6814469CB9204F3B6823B9214630467E
:1046500000F062F838602946304600F05DF8431CEF
:1046600023D10C233046336000F06CF8E3E7236875
:104670005B1B17D40B2B03D923601C44256004E07B
:104680006368A2420CBF0B605360304600F05AF8DA
:1046900004F10B00231D20F00700C21ACCD01B1A16
:1046A000A350C9E722466468CCE7C41C24F0030485
:1046B000A042E3D0211A304600F02EF80130DDD1BF
:1046C000CFE700BF9400002098000020F8B507460F
:1046D00014460E4621B91146BDE8F840FFF79CBFCD
:1046E00022B9FFF74DFF25462846F8BD00F030F807
:1046F000A0420FD221463846FFF78EFF054600281C
:10470000F2D031462246FFF713FF31463846FFF715
:1047100037FFE9E73546E7E738B50023054D04469E
:1047200008462B60FDF7BAF8431C02D12B6803B191
:10473000236038BD84010020014800F011B800BF9B
:104740008C010020014800F00CB800BF8C01002053
:1047500051F8043C181F002BBCBF0B58C018704701
:1047600070477047000000002DE9F843C1F30A5874
:10477000A8F2FF36132E02460B4607460C460546A6
:1047800031DC002E12DA34A3D3E90023FBF7EEFC70
:1047900000220023FCF730F928B1002C56DB3C4303
:1047A00058D000252E4C23462F4625E02D4A42FAAC
:1047B00006F801EA080202431ED027A3D3E900232A
:1047C000FBF7D4FC00220023FCF716F90028EAD0FE
:1047D000002CC2BF4FF4801343FA06F6A41900253B
:1047E00024EA0804DFE7332E0ADDB6F5806F03D133
:1047F000FBF7BCFC07460B4638461946BDE8F88374
:104800004FF0FF32A8F2134822FA08F818EA000F16
:10481000F2D011A3D3E90023FBF7A8FC0022002368
:10482000FCF7EAF80028BED0002C02DD142E03D1DC
:10483000013425EA0805B6E70123C6F1340603FA78
:1048400006F63544BD4238BFE418F2E700254FF0C4
:104850000044A8E72546A6E79C7500883CE4377E1F
:104860000000F03FFFFF0F00F8B500BFF8BC08BC28
:104870009E467047F8B500BFF8BC08BC9E4670471E
:1048800041542B53415042523D332C312C22434F43
:104890004E54595045222C2247505253220A0000B0
:1048A00041542B53415042523D332C312C22415024
:1048B0004E222C2265746973616C6174220A0000B7
:1048C00041542B53415042523D312C310A000000DB
:1048D00041542B465450534552563D223139392EBE
:1048E0003130322E34382E3238220A0041542B46D1
:1048F0005450504F52543D223231220A00000000E1
:1049000041542B465450554E3D22666F74613232ED
:10491000220A000041542B46545050573D22464F26
:104920005441313233343536220A000041542B468B
:1049300054504745544E414D453D2273732E626994
:104940006E220A0041542B4654504745545041545E
:10495000483D222F220A000041542B46545047451F
:1049600054544F46533D302C2266696E616C2E6262
:10497000696E220A0000000041542B4653464C53F6
:10498000495A453D433A5C557365725C4654505CE8
:1049900066696E616C2E62696E0A000041542B4696
:1049A00053524541443D433A5C557365725C4654ED
:1049B000505C66696C65312E62696E2C312C313029
:1049C00032342C25640A0000020304050607080996
:1049D0000A0B0C0D0E0F101000000000000000006C
:1049E0000102030406070809000000000102030495
:1049F00000202020202020202020282828282820AF
:104A000020202020202020202020202020202020A6
:104A1000208810101010101010101010101010100E
:104A200010040404040404040404041010101010FE
:104A300010104141414141410101010101010101C8
:104A4000010101010101010101010101101010101A
:104A5000101042424242424202020202020202029A
:104A600002020202020202020202020210101010EE
:104A70002000000000000000000000000000000016
:104A80000000000000000000000000000000000026
:104A90000000000000000000000000000000000016
:104AA0000000000000000000000000000000000006
:104AB00000000000000000000000000000000000F6
:104AC00000000000000000000000000000000000E6
:104AD00000000000000000000000000000000000D6
:104AE00000000000000000000000000000000000C6
:104AF00000232D302B2000686C4C0065666745460E
:104B00004700303132333435363738394142434447
:104B100045460030313233343536373839616263D7
:044B20006465660062
:044B2400350100084F
:044B2800110100086F
:104B2C000024F40010000000010000001000002020
:104B3C000000000000000000000000000000000069
:104B4C000000000000000000000000000000000059
:104B5C000000000000000000000000000000000049
:104B6C000000000000000000000000000000000039
:104B7C000000000000000000000000000000000029
:104B8C000000000000000000000000000000000019
:0400000508001915C1
:00000001FF
